:020000040000FA
:06000000D2EF01F0120036
:020006001200E6
:06000800DFEF00F0120022
:060018002AEF01F01200C6
:02001E000100DF
:0C002000C0030000600000000C000000A5
:04002C00BFD8FD0E2E
:10003000DBCF68F0FE0EDBCF69F0FD0EDBCF06F004
:10004000FE0EDBCF07F0010E061801E1075015E0A8
:10005000020E061801E107500EE0030E061801E13A
:10006000075007E0040E06180AE1075008E1949CC7
:10007000829C949C829C949C829C949C829CFF0E6B
:10008000F36EFD0EDB5004E0D890F336E806FCE199
:10009000F3509414946ED08EF28EF2949F0EE66E0E
:1000A000A6EC01F0E55287D081D8FD0EDBCFE9FF49
:1000B000FE0EDBCFEAFFD890E936EA36600EE9267D
:1000C000000EEA22FB0EDBCFEEFFFC0EDBCFEDFFD6
:1000D00072D06CD8E15064D8EE50ED100EE0D950DB
:1000E0005FD8010EEE1802E1ED5007E0D95058D864
:1000F000020EEE1804E1ED5002E1827C08D0D950E6
:100100004FD8030EEE1803E1ED5001E1827C53D08D
:10011000F250200B44E0F250040B41E000016B353B
:1001200013E26A510008000E6B550EE26AC00BF034
:100130006BC00CF00B06000E0C5A0BC0E6FF0CC097
:10014000E6FFC7DFE552E55268C00BF069C00CF06E
:100150000B06000E0C5A00016B510C18E8AE02D0D1
:100160000C3404D00B506A5D0C506B5907E26AC026
:10017000E6FF6BC0E6FFADDFE552E55200016A2BFA
:10018000000E6B236B516919E8AE02D0693504D0BB
:1001900068516A5D69516B5902E36A6B6B6B1200BF
:1001A000FD0FE96EFF0EDA20EA6E1200D9CFE6FFEE
:0E01B000E1CFD9FF1200E552E7CFD9FF1200D0
:0201BE00DACF96
:1001C000E4FFE2CFDAFFE9CFE4FFEACFE4FFF6CFC6
:1001D000E4FFF7CFE4FFF5CFE4FFF3CFE4FFF4CF84
:1001E000E4FFFACFE4FF00EE00F00B0EE80403E3B7
:1001F000EECFE4FFFBD700EE0BF0020EE80403E3C2
:10020000EECFE4FFFBD7E65288EC00F0E55200EEBB
:100210000CF0020EE80403E3E5CFEDFFFBD700EEA0
:100220000AF00B0EE80403E3E5CFEDFFFBD7E5CFC3
:10023000FAFFE5CFF4FFE5CFF3FFE5CFF5FFE5CF1C
:10024000F7FFE5CFF6FFE5CFEAFFE5CFE9FFE5CF22
:10025000DAFF1100DACFE4FFE652E552E5CFDAFF2C
:100260001100070EB46EC26A0F0EC16ED16A7F0E06
:10027000D36E6D6A080E6F6E020EE66EE66A16ECBD
:1002800000F0E552E552280EE66EE66A000E08D848
:10029000E552E552B40EE66EE66A010E01D8F1D7DA
:0E02A000E66EE66A54EC00F0E552E5521200FC
:0202AE001E0E22
:1002B000F66E000EF76E000EF86E00010900F550A4
:1002C000716F0900F550726F03E1716701D03DD085
:1002D0000900F5506C6F0900F5506D6F0900F5507D
:1002E0006E6F09000900F550E96E0900F550EA6EDD
:1002F000090009000900F5506F6F0900F550706F93
:1003000009000900F6CF73F0F7CF74F0F8CF75F05D
:100310006CC0F6FF6DC0F7FF6EC0F8FF00016F53B1
:1003200002E1705307E00900F550EE6E6F07F8E246
:100330007007F9D773C0F6FF74C0F7FF75C0F8FFF8
:0C03400000017107000E725BBFD71200B5
:04034C00D9CFE6FF20
:10035000DACFE6FFE1CFD9FFE2CFDAFFFD0EDB50C7
:100360007F0BD56ED76AD66AF294FD0EDBAE02D053
:10037000F28A01D0F29AD58EE552E5CFDAFFE7CFC7
:04038000D9FF12008F
:0C038400000EF36E00EE00F0080E01D831
:100390001200EA6002D0EE6AFCD7F350E960120066
:0403A000EE6AFCD72E
:0C03A40013EE00F023EE00F0F86A0A9C53
:1003B00057EC01F003EC00F031EC01F0FBD7120038
:0C03C00000000000000000000000000031
:020000040030CA
:0100000001FE
:010001004CB2
:0100020037C6
:010003001EDE
:010005008179
:0100060001F8
:00000001FF
